S0160000726164696F506F645F74657374312E737265638C
S1130000FDC0000011C100000FC100000DC10000BF
S11300100BC1000009C1000007C1000005C10000B8
S113002003C1000001C10000FFC00000FDC00000CA
S1130030FBC00000F9C00000F7C00000F5C00000DC
S1130040F3C00000F1C00000EFC00000EDC00000EC
S1130050EBC00000E9C00000E7C00000E5C00000FC
S1130060E3C00000E1C00000DFC00000DDC000000C
S1130070DBC00000D9C00000D7C00000D5C000001C
S1130080D3C00000D1C00000CFC00000CDC000002C
S1130090CBC00000C9C00000C7C00000C5C000003C
S11300A0C3C00000C1C00000BFC00000BDC000004C
S11300B0BBC00000B9C00000B7C00000B5C000005C
S11300C0B3C00000B1C00000AFC00000ADC000006C
S11300D0ABC00000A9C00000A7C00000A5C000007C
S11300E0A3C00000A1C000009FC000009DC000008C
S11300F09BC0000099C0000097C0000095C000009C
S113010093C0000091C000008FC000008DC00000AB
S11301108BC0000089C0000087C0000085C00000BB
S113012083C0000081C000007FC000007DC00000CB
S11301307BC0000079C0000077C0000075C00000DB
S113014073C0000071C000006FC000006DC00000EB
S11301506BC0000069C0000067C0000065C00000FB
S113016063C0000061C000005FC000008BC10000DC
S1130170BDC1000059C0000057C0000055C00000B8
S113018053C0000051C000004FC000004DC000002B
S11301904BC0000049C0000047C0000045C000003B
S11301A043C0000041C000003FC000003DC000004B
S11301B03BC0000039C0000037C0000035C000005B
S11301C033C0000031C000002FC000002DC000006B
S11301D02BC0000029C0000027C00000EBC00000B5
S11301E01DC1000021C000001FC000001DC0000090
S11301F01BC0000019C0000017C0000011241FBE5E
S1130200CFEFDFE3DEBFCDBF00E00CBF18BE19BEE9
S11302101ABE1BBE24E2A0E0B0E201C01D92AE30C3
S1130220B207E1F7B0D035C2EBCE1F93CF93DF9383
S1130230E0E5F0E08BED82838081886080838181BA
S113024083FFFDCFE0E5F0E082EC8583808180616F
S11302508083818184FFFDCF88ED84BF84E0809317
S11302604000E0EAF6E080818960808380818B7FB2
S11302708083E0E6F6E080818068808380818F7BE4
S11302808083E4EAF6E080818E7F8083E1E0F2E01F
S113029080818083E1E2F2E080818065808381E077
S11302A080932002E2E0F2E0808180638083E4E0D6
S11302B0F2E0808182608083C0E0D2E08881816046
S11302C0888341E060EA7BE080E090E243D1E09102
S11302D00020F091012013E0158383818F7C8061DD
S11302E08383A0EABBE08CE016968C93169782EB8E
S11302F017968C938481806184838481886084834D
S113030041E060EB79E087E092E224D1E0910722BA
S1130310F0910822158383818F7C80618383A0EB15
S1130320B9E08FEC16968C93169780E117968C9310
S1130330848180618483848188608483E0E2F7E03F
S113034080818E608083E4E2F7E080818260808334
S113035088818460888324E639E14AE852E005C054
S11303600197F1F72150310911F0CA01F9CFE0EA00
S1130370F0E0828187608283789480E890E0DF9166
S1130380CF911F91089551DFC4E2D7E002E087E0E6
S113039092E221D18823D9F387E092E229D1182F60
S11303A0682F80E090E2F8D01A3089F7888180279E
S11303B08883EDCF1F920F920FB60F92112408B6C7
S11303C00F9218BE09B60F9219BE0BB60F921BBE40
S11303D02F933F934F935F936F937F938F939F9349
S11303E0AF93BF93EF93FF9380E090E20ED1FF9120
S11303F0EF91BF91AF919F918F917F916F915F9199
S11304004F913F912F910F900BBE0F9009BE0F900B
S113041008BE0F900FBE0F901F9018951F920F9259
S11304200FB60F92112408B60F9218BE09B60F9298
S113043019BE0BB60F921BBE2F933F934F935F933E
S11304406F937F938F939F93AF93BF93EF93FF9398
S113045080E090E2F7D0FF91EF91BF91AF919F912F
S11304608F917F916F915F914F913F912F910F9059
S11304700BBE0F9009BE0F9008BE0F900FBE0F90D9
S11304801F9018951F920F920FB60F92112408B661
S11304900F9218BE09B60F9219BE0BB60F921BBE6F
S11304A02F933F934F935F936F937F938F939F9378
S11304B0AF93BF93EF93FF9387E092E2A6D0FF91AF
S11304C0EF91BF91AF919F918F917F916F915F91C8
S11304D04F913F912F910F900BBE0F9009BE0F903B
S11304E008BE0F900FBE0F901F9018951F920F9289
S11304F00FB60F92112408B60F9218BE09B60F92C8
S113050019BE0BB60F921BBE2F933F934F935F936D
S11305106F937F938F939F93AF93BF93EF93FF93C7
S113052087E092E28FD0FF91EF91BF91AF919F91BD
S11305308F917F916F915F914F913F912F910F9088
S11305400BBE0F9009BE0F9008BE0F900FBE0F9008
S11305501F901895FC01608371834283EC5FFD4F0B
S11305601082FC01ED5FFD4F1082FC01EA5FFD4F3C
S11305701082FC01EB5FFD4F10820895FC01EB5FDC
S1130580FD4F2081FC01EA5FFD4F90812F5F81E0E8
S1130590291301C080E008951F93CF93DF93EC01EA
S11305A0162FECDF882399F0FE01EB5FFD4F90815D
S11305B0DE01A90FB11DAD5FBE4F1C939F5F9083F9
S11305C0E881F98193819C7F2A81922B9383DF9127
S11305D0CF911F910895FC01ED5FFD4F2081FC0137
S11305E0EC5FFD4F908181E0291301C080E0089504
S11305F0FC01EC5FFD4F2081DC01A20FB11D1396BD
S11306008C9190819F5F90830895FC01ED5FFD4F75
S113061020812F5FFC01EC5FFD4F3081DC01ED9107
S1130620FC9111974081231759F0FC01ED5FFD4FB8
S11306303081A30FB11D13964C93208381E008955C
S113064080E00895CF93DF93FC01EA5FFD4F2081A2
S1130650FC01EB5FFD4F3081321307C0DC01ED91EB
S1130660FC9183818C7F838311C0FC01EA5FFD4F81
S11306702081DC01A20FB11DAD5FBE4F2C91EC01B6
S1130680A881B9812C9380818F5F8083DF91CF9182
S10906900895F894FFCF69
S9030000FC
