S0120000526164696F506F645F632E737265633E
S1130000F9C0000005C1000003C1000001C10000E7
S1130010FFC00000FDC00000FBC00000F9C00000EC
S1130020F7C00000F5C00000F3C00000F1C00000FC
S1130030EFC00000EDC00000EBC00000E9C000000C
S1130040E7C00000E5C00000E3C00000E1C000001C
S1130050DFC00000DDC00000DBC00000D9C000002C
S1130060D7C00000D5C00000D3C00000D1C000003C
S1130070CFC00000CDC00000CBC00000C9C000004C
S1130080C7C00000C5C00000C3C00000C1C000005C
S1130090BFC00000BDC00000BBC00000B9C000006C
S11300A0B7C00000B5C00000B3C00000B1C000007C
S11300B0AFC00000ADC00000ABC00000A9C000008C
S11300C0A7C00000A5C00000A3C00000A1C000009C
S11300D09FC000009DC000009BC0000099C00000AC
S11300E097C0000095C0000093C0000091C00000BC
S11300F08FC000008DC000008BC0000089C00000CC
S113010087C0000085C0000083C0000081C00000DB
S11301107FC000007DC000007BC0000079C00000EB
S113012077C0000075C0000073C0000071C00000FB
S11301306FC000006DC000006BC0000069C000000B
S113014067C0000065C0000063C0000061C000001B
S11301505FC000005DC000005BC0000059C000002B
S113016057C0000055C0000053C0000051C000003B
S11301704FC000004DC000004BC0000049C000004B
S113018047C0000045C0000043C0000041C000005B
S11301903FC000003DC000003BC0000039C000006B
S11301A037C0000035C0000033C0000031C000007B
S11301B02FC000002DC000002BC0000029C000008B
S11301C027C0000025C0000023C0000021C000009B
S11301D01FC000001DC000001BC0000019C00000AB
S11301E017C0000015C0000013C0000011C00000BB
S11301F00FC0000011241FBECFEFCDBFDFE3DEBF71
S113020000E00CBF18BE19BE1ABE1BBE30D182C19D
S1130210F7CE0F931F93CF93DF93082F162FC4E4C9
S1130220D6E098819F7E988382E061D1802F5FD150
S1130230812F5DD1888180618883DF91CF911F9167
S11302400F910895CF93DF93C4E4D6E098819F7E05
S113025098834DD1888180618883DF91CF910895FF
S1130260FF920F931F93CF93DF93F82E162F042F33
S1130270C4E4D6E098819F7E988385E038D18F2DA1
S113028036D1802F34D1812F32D188818061888307
S1130290DF91CF911F910F91FF900895E4E4F6E070
S11302A08081877F80838FE891E00197F1F700C018
S11302B0000080818860808340EE60E88FE0D0DFBA
S11302C064E08AE2A6DF6AEC89E2A3DF61E088E207
S11302D0A0DF63E08BE29DDF61E08DE09ADF40EE1A
S11302E060E08FE0BDCF08951F93CF93DF93182F65
S11302F0C4E4D6E098819F7E988383E0F8D0812F70
S1130300F6D080E0F4D0988190619883DF91CF910A
S11303101F91089580E3E8DF83FF0AC080E4E4DFEF
S113032083FF08C080E5E0DF83FF06C080E0089516
S113033080E3089580E4089580E508958F929F9264
S1130340AF92BF92CF92DF92EF92FF920F931F93DF
S1130350CF93DF93D82FF62E6A01480159018823E1
S113036009F457C063E055DFC501B401052E55E11A
S113037096958795779567955A95D1F7502D81E095
S11303808D0F47DFD501C401072E7DE0B695A795F3
S1130390979587957A95D1F7702D682F607E8A2D71
S11303A08370682B686082E08D0F33DF99278B2D73
S11303B07A2D692D83E08D0F2CDF682D84E08D0F5D
S11303C028DF6F2D85E08D0F24DFFF20A1F086014B
S11303D0C6E0CD0FFA94EF2CF12C8FEFE81AF80A4F
S11303E0EC0CFD1CF80161918F018C2F12DFCF5FA3
S11303F00E151F05B9F7D595D595D595D595D35037
S113040081E090E002C0880F991FDA95E2F78068D6
S113041019DFDF91CF911F910F91FF90EF90DF9043
S1130420CF90BF90AF909F908F900895E0E5F0E05B
S1130430808186608083818182FFFDCFE0E5F0E0EA
S1130440818181FFFDCF81E08093600098ED94BFAE
S113045080934000E0E5F0E080818E7F8083089502
S1130460E4E2F7E090818EE0892780830895CF93BA
S1130470DF931F92CDB7DEB72FEF89EF90E02150C5
S113048080409040E1F700C00000D0DF8FEB809304
S11304904006E4E4F6E080818F608083E0E2F7E0E8
S11304A080818E6080831CD0F9DE6CE18CE2B1DE49
S11304B019822FEF83EC99E0215080409040E1F7BE
S11304C000C0000027DF8983882399F300E210E04D
S11304D020E030E0AE014F5F5F4F60E02FDFE9CFF7
S11304E0E0ECF8E082E58083138211820895CF93D3
S11304F0DF938093C3088091C208882334F0C2EC50
S1130500D8E0AEDF88818823E4F78091C308DF91C7
S10B0510CF910895F894FFCF88
S9030000FC
