S0160000526164696F506F645F635F365F322E7372656314
S1130000FDC0000009C1000007C1000005C10000D7
S113001003C1000001C10000FFC00000FDC00000DA
S1130020FBC00000F9C00000F7C00000F5C00000EC
S1130030F3C00000F1C00000EFC00000EDC00000FC
S1130040EBC00000E9C00000E7C00000E5C000000C
S1130050E3C00000E1C00000DFC00000DDC000001C
S1130060DBC00000D9C00000D7C00000D5C000002C
S1130070D3C00000D1C00000CFC00000CDC000003C
S1130080CBC00000C9C00000C7C00000C5C000004C
S1130090C3C00000C1C00000BFC00000BDC000005C
S11300A0BBC00000B9C00000B7C00000B5C000006C
S11300B0B3C00000B1C00000AFC00000ADC000007C
S11300C0ABC00000A9C00000A7C00000A5C000008C
S11300D0A3C00000A1C000009FC000009DC000009C
S11300E09BC0000099C0000097C0000095C00000AC
S11300F093C0000091C000008FC000008DC00000BC
S11301008BC0000089C0000087C0000085C00000CB
S113011083C0000081C000007FC000007DC00000DB
S11301207BC0000079C0000077C0000075C00000EB
S113013073C0000071C000006FC000006DC00000FB
S11301406BC0000069C0000067C0000065C000000B
S113015063C0000061C000005FC000005DC000001B
S11301605BC0000059C0000057C0000055C000002B
S113017053C0000051C000004FC000004DC000003B
S11301804BC0000049C0000047C0000045C000004B
S113019043C0000041C000003FC000003DC000005B
S11301A03BC0000039C0000037C0000035C000006B
S11301B033C0000031C000002FC000002DC000007B
S11301C02BC0000029C0000027C0000025C000008B
S11301D023C0000021C000001FC000001DC000009B
S11301E01BC0000019C0000017C0000015C00000AB
S11301F013C0000011C000000FC0000011241FBE76
S1130200CFEFCDBFDFE3DEBF00E00CBF18BE19BEE9
S11302101ABE1BBE75D1A7C1F3CEEF92FF921F93F6
S1130220CF93DF931F92CDB7DEB7182F84E4E82E67
S113023086E0F82EF70190819F7E908382E090E023
S1130240698355D1812F90E052D16981862F90E046
S11302504ED1F7018081806180830F90DF91CF912F
S11302601F91FF90EF900895EF92FF921F93CF9309
S1130270DF931F921F92CDB7DEB7182F94E4E92EB7
S113028096E0F92EF70190819F7E908385E090E0BF
S113029049836A832CD1812F90E029D14981842F0D
S11302A090E025D16A81862F90E021D1F7018081E9
S11302B0806180830F900F90DF91CF911F91FF9009
S11302C0EF900895CF93DF93C4E4D6E088818F7EC6
S11302D0888380EC90E00BD18881806188838FEEE5
S11302E090E00197F1F700C0000040EE60E88FE075
S11302F0BBDF64E08AE291DF6AEC89E28EDF61E0D1
S113030088E28BDF6FE18BE288DF67E08DE085DFD9
S113031040EE60E08FE0DF91CF91A6CFAF92BF9225
S1130320CF92DF92EF920F931F93CF93DF931F929D
S1130330CDB7DEB7A82E162FB42E63E0812F298304
S11303406CDFEA2DE37080E4E89FF00111246B2D4B
S11303506695669566956E2B81E0810F5EDF90E26F
S1130360B99EA0011124642F686082E0810F55DFDB
S11303702981622F83E0810F50DF602F84E0810F99
S11303804CDF6E2D85E0810F48DF560106E0010F3A
S1130390E6E0EE0EE10E0E1539F0F50161915F0114
S11303A0802F3BDF0F5FF7CF103379F48091440641
S11303B08B7F809344068FE891E00197F1F700C0AA
S11303C0000080914406846021C0103479F4809147
S11303D044068D7F80934406EFE8F1E03197F1F70E
S11303E000C0000080914406826010C0103581F482
S11303F0809144068E7F809344068FE891E00197B4
S1130400F1F700C0000080914406816080934406A7
S11304100F90DF91CF911F910F91EF90DF90CF90CC
S1130420BF90AF9008951F93CF93DF93C4E4D6E0B9
S113043088818F7E888380EA90E059D08FEF90E0A6
S113044056D0182F8FEF90E052D098819061988306
S1130450812FDF91CF911F9108951F93CF93DF9345
S1130460182FC4E4D6E098819F7E988383E090E0BF
S11304703ED0812F90E03BD08FEF90E038D0988130
S113048090619883DF91CF911F9108958CE2E5DF0D
S1130490982F82FD07C083FD07C0807194FF05C0BB
S11304A080E5089580E3089580E4089580915000E4
S11304B08660809350008091510082FFFCCF809130
S11304C0510081FFFCCF81E08093600098ED94BFE0
S11304D080934000809150008E7F80935000089557
S11304E0E0ECF8E082E58083138211820895809322
S11304F0C3088091C20887FFFCCF8091C308089588
S1130500CF93DF931F92CDB7DEB7D0DF8FEB80930D
S11305104006809144068F6080934406E1DFD2DE7A
S11305206CE170E08CE290E078DE8AEA89838FE304
S11305309CE90197F1F700C0000075DFA7DF88236D
S1130540B1F3BC017727CE0101966C01EE24E3944C
S1130550F12C01E010E021E030E041E050E081E0E6
S10D056090E0DCDEE4CFF894FFCF56
S9030000FC
