S0190000526164696F506F645F635F7833324134752E7372656311
S11300000C94FE000C9408010C9408010C94080153
S11300100C9408010C9408010C9408010C94080138
S11300200C9408010C9408010C9408010C94080128
S11300300C9408010C9408010C9408010C94080118
S11300400C9408010C9408010C9408010C94080108
S11300500C9408010C9408010C9408010C940801F8
S11300600C9408010C9408010C9408010C940801E8
S11300700C9408010C9408010C9408010C940801D8
S11300800C9408010C9408010C9408010C940801C8
S11300900C9408010C9408010C9408010C940801B8
S11300A00C9408010C9408010C9408010C940801A8
S11300B00C9408010C9408010C9408010C94080198
S11300C00C9408010C9408010C9408010C94080188
S11300D00C9408010C9408010C9408010C94080178
S11300E00C9408010C9408010C9408010C94080168
S11300F00C9408010C9408010C9408010C94080158
S11301000C9408010C9408010C9408010C94080147
S11301100C9408010C9408010C9408010C94080137
S11301200C9408010C9408010C9408010C94080127
S11301300C9408010C9408010C9408010C94080117
S11301400C9408010C9408010C9408010C94080107
S11301500C9408010C9408010C9408010C940801F7
S11301600C9408010C9408010C9408010C940801E7
S11301700C9408010C9408010C9408010C940801D7
S11301800C9408010C9408010C9408010C940801C7
S11301900C9408010C9408010C9408010C940801B7
S11301A00C9408010C9408010C9408010C940801A7
S11301B00C9408010C9408010C9408010C94080197
S11301C00C9408010C9408010C9408010C94080187
S11301D00C9408010C9408010C9408010C94080177
S11301E00C9408010C9408010C9408010C94080167
S11301F00C9408010C9408010C94080111241FBEEE
S1130200CFEFCDBFDFE2DEBF0E943A020C946B0257
S11302100C9400000F931F93CF93DF93082F162F96
S1130220C4E4D6E088818F7E888382E090E00E94D7
S11302303002802F90E00E943002812F90E00E94D3
S11302403002888180618883DF91CF911F910F9163
S11302500895CF93DF93C4E4D6E098819F7E98837A
S113026090E00E943002888180618883DF91CF9181
S11302700895FF920F931F93CF93DF93F82E162FB9
S1130280042FC4E4D6E088818F7E888385E090E0E3
S11302900E9430028F2D90E00E943002802F90E067
S11302A00E943002812F90E00E9430028881806198
S11302B08883DF91CF911F910F91FF900895CF9282
S11302C0DF92EF92FF920F931F93CF93DF93182F38
S11302D0F62EC42FD22F63E08F2D0E940A011295AF
S11302E0110F110F107C8C2F869586958695612FA2
S11302F0682B81E08F0D0E940A0180E2C89FA00153
S11303001124642F686082E08F0D0E940A016D2F12
S113031083E08F0D0E940A01602F84E08F0D0E94FC
S11303200A016E2D85E08F0D0E940A01EE2079F0FE
S1130330CC2DDD2D16E01F0D86E08E0DE82EEF0C82
S11303406991812F0E940A011F5F1E11F9CF21E0DC
S113035030E0C90102C0880F991FFA94E2F780685F
S11303600E942901DF91CF911F910F91FF90EF908F
S1130370DF90CF9008951F93CF93DF93C4E4D6E02A
S113038088818F7E888380EA90E00E9430028FEF1C
S113039090E00E943002182F8FEF90E00E9430020C
S11303A0888180618883812FDF91CF911F91089587
S11303B0CF93DF93C4E4D6E088818F7E888380EC7A
S11303C090E00E9430028881806188838FEE90E003
S11303D00197F1F700C0000040EE60E88FE00E9452
S11303E0390164E08AE20E940A016AEC89E20E940F
S11303F00A0161E088E20E940A016FE18BE20E9437
S11304000A0161E08DE00E940A0140EE60E08FE0A5
S11304100E9439010E94BB01DF91CF910895E0E56C
S1130420F0E0808186608083818182FFFDCFE0E5FA
S1130430F0E0818181FFFDCF81E08093600098ED41
S113044094BF80934000E0E5F0E080818E7F80835C
S11304500895E0ECF8E081E5808313821182089529
S1130460E0ECF8E0838382818823ECF7E0ECF8E0A9
S113047083810895CF93DF931F92CDB7DEB70E9497
S11304800F0280EB809340060E9429020E94D8014B
S11304906CE170E08CE290E00E940A018AEA8983B0
S11304A08FE39CE90197F1F700C000000E94BB01B3
S11304B0CE0101966C01EE24E394F12C01E010E0EE
S11304C021E030E041E050E060E070E081E090E065
S10D04D00E945F01E5CFF894FFCF0E
S9030000FC
